:100000000C9446000C946C000C946C000C946C00E6
:100010000C946C000C946C000C943B050C946C00DC
:100020000C946C000C946C000C946C000C94010B00
:100030000C946C000C946C000C94610A0C946C0091
:100040000C946C000C946C000C946C000C946C0080
:100050000C946C000C946C000C946C000C94230BAE
:100060000C946C000C946C009E051A0672056805D1
:100070006F05FC05F1057F0C630B630B7C0C880C92
:10008000780C8F0C8B0C930C4C0C1E0C11241FBE87
:10009000CFEFD8E0DEBFCDBF14BE88E10FB6F89435
:1000A00080936000109260000FBE11E0A0E0B1E00C
:1000B000EAE8F0E202C005900D92AE31B107D9F73F
:1000C00021E0AEE1B1E001C01D92A83BB207E1F72B
:1000D0000E94C20D0C9443100C9400008091B30157
:1000E0009091B401892B91F5109211011092100199
:1000F00085E390E0909305018093040181E090E016
:10010000909333018093320190932F0180932E01BD
:10011000909337018093360185E090E09093290118
:100120008093280190E01092470190933E019091B6
:100130001E0190933F01809340018EE391E00E9465
:10014000260D9093490180934801089590911001E4
:1001500080912801E8CF8091100180933E01809129
:100160001E0180933F0180912601809340018EE320
:1001700091E00E94260D90934901809348018EE3FF
:1001800091E00895CF93DF93EC01288130E0309324
:100190002D0120932C014091100150911101241741
:1001A000350709F49AC0CB010E949A0790E090931A
:1001B000070180930601873491050CF049C04091F6
:1001C0007D0150917E0160917F017091800140938B
:1001D0004E0150934F016093500170935101209153
:1001E0002C0130912D01E0911001F091110140910D
:1001F0007D0150917E0160917F0170918001E21735
:10020000F3070CF46DC0409356015093570160936F
:100210005801709359012F5F3F4F30931101209384
:1002200010012A8130E0309329012093280141E018
:1002300050E050932F0140932E012430310541F0BE
:100240009093050180930401509333014093320150
:1002500010923901109238018091B3019091B4014C
:10026000892BD9F140917D0150917E0160917F01F0
:10027000709180018091520190915301A09154019D
:10028000B091550180569F4FAF4FBF4F84179507D0
:10029000A607B70710F581E090E090931F018093C7
:1002A0001E0124E630E030930301209302013093D5
:1002B000010120930001909335018093340125E0E2
:1002C00030E030932B0120932A01909331018093E9
:1002D00030019093390180933801DF91CF910895D7
:1002E0004093520150935301609354017093550110
:1002F00031962E173F0709F0ABCF298130E03093BC
:100300001F0120931E012A8130E030932B0120939E
:100310002A0141E050E050933101409330012430F4
:100320003105C9F02091220130912301A9014F5FCD
:100330005F4F50932301409322012130310581F01A
:10034000909303018093020181E090E09093350146
:10035000809334017DCF109223011092220178CF37
:1003600010920B0110920A01EBCF0E94B70660E0D9
:100370008091B7010C94B2060E941207817090E040
:1003800008950E94120790E06FEF70E00E94D90D6F
:10039000882777FD8095982F0E94160F08958091E9
:1003A00010019091110182309105C9F03CF4009741
:1003B00099F0019759F481E00C94DD0A833091059E
:1003C00041F0049719F485E00C94DD0A81E10C9466
:1003D000DD0A80E10C94DD0A85E10C94DD0A84E0FD
:1003E0000C94DD0A20910E0130910F012817390776
:1003F00071F090930F0180930E01009781F081308E
:10040000910589F082309105B1F0039709F00895C4
:100410000E94B7066091A30180E00C94B20660E0F0
:1004200080E00C94B2060E94B7066091B6018091FC
:10043000B5010C94B2060E94B70660E08091B70146
:100440000C94B2068091B3019091B401892B51F1C3
:1004500040917D0150917E0160917F0170918001FA
:1004600080914E0190914F01A0915001B0915101A6
:1004700080569F4FAF4FBF4F84179507A607B7070A
:1004800088F480911001909111018F3F910554F4EF
:100490008FEF90E0909311018093100110921F0153
:1004A00010921E010895CF93DF93C0910801D0915F
:1004B000090180E00E94DD0A2091020130910301D0
:1004C0008091000190910101281739070CF483C035
:1004D000821793070CF453C0809138019091390131
:1004E000019719F180E10E94DD0A8091120190913B
:1004F0001301029709F4ACC0809114019091150189
:10050000009709F07CC08091080190910901823028
:10051000910509F4C6C08330910509F4BDC0019767
:1005200009F4AFC020E080E070C0C1E0D0E0D0931B
:100530000901C093080180910E0190910F01C81725
:10054000D90791F0D0930F01C0930E01209709F4C1
:1005500072C0C130D10509F483C0C230D10509F49D
:1005600088C0239709F46CC0809102019091030127
:100570009093010180930001DF91CF91089584E071
:100580000E94DD0A8091140190911501909313014E
:100590008093120182E090E0909315018093140102
:1005A00080910A0190910B01892BD1F18091080172
:1005B000909109018230910509F44FC08330910573
:1005C00039F0019709F0B3CF0E94120780FF45C0B0
:1005D000C2E0D0E0ACCF81E00E94DD0A809114013E
:1005E00090911501909313018093120110921501BF
:1005F00010921401C0910801D091090198CF282FC1
:10060000892FC0910801D091090120931201809394
:10061000130181E090E0909315018093140187CF3E
:1006200081E090E090930B0180930A01C091080152
:10063000D09109017CCF60E080E00E94B20694CFA7
:100640000E94B7066091A30180E00E94B2068CCFA1
:100650002091140180911501D4CFC3E0D0E067CF81
:100660000E94B7066091B6018091B5010E94B20662
:100670007BCF0E94B70660E08091B7010E94B2066E
:1006800073CF0E9412072091140180FD0FC080914A
:100690001501C3E0D0E0B9CF20E080E0C2E0D0E0B7
:1006A000B4CF20E080E0C3E0D0E0AFCF809115016F
:1006B000C2E0D0E0AACFCF92DF92EF92FF9280917A
:1006C000B3019091B401892B09F441C040917D019F
:1006D00050917E0160917F017091800180914E0167
:1006E00090914F01A0915001B091510180569F4FC0
:1006F000AF4FBF4F84179507A607B70740F5809106
:100700001001909111018F3F91050CF58FEF90E052
:10071000909311018093100110921F0110921E01FD
:1007200080910E0190910F01892B41F010920F01E1
:1007300010920E0160E080E00E94B2061092250146
:1007400010922401FF90EF90DF90CF900895809158
:100750001E0190911F01019719F78091100190914E
:1007600011018F3F9105E4F68091280190912901B4
:10077000059709F06AC080912A0190912B01049796
:1007800009F463C08091360190913701892B21F4DF
:1007900010922F0110922E01809138019091390111
:1007A000892B21F4109231011092300180910401C3
:1007B00090910501C6970CF05BC080910201909169
:1007C000030187970CF454C060917D0170917E0104
:1007D00080917F01909180010E94140F6B017C0138
:1007E00060914A0170914B0180914C0190914D01B3
:1007F0000E94140F2DEC3CEC4CE451E40E94170EC7
:100800009B01AC01C701B6010E94A20F18160CF0A3
:1008100099CF80917D0190917E01A0917F01B0914F
:10082000800180934A0190934B01A0934C01B093B7
:100830004D0184E090E09093270180932601FF9082
:10084000EF90DF90CF900C94530280910E01909125
:100850000F01892B09F476CF10920F0110920E012F
:1008600060E080E0FF90EF90DF90CF900C94B206B4
:1008700080910E0190910F01892B41F010920F0190
:1008800010920E0160E080E00E94B20685E090E0E8
:100890009093270180932601109225011092240144
:1008A00051CF089580E090E008950895DF92EF928F
:1008B000FF920F931F93CF93DF93F89414B817B858
:1008C0001AB815B818B81BB8529A5A9A14BC85E0D1
:1008D00085BD8FEF87BD22E020936E0010928000CF
:1008E000109281008FE89BE09093890080938800AC
:1008F00020936F005398239881EA8093B00020934F
:10090000B1001092B4001092B3008BE080BF83E07E
:1009100080937F0086E080937C0083E880937A0058
:1009200080917A00806480937A0080917A0086FDBD
:10093000FCCF10927C0083EA80937A0081E0809360
:100940007B0081E090E00E942D108F3F11F080939A
:10095000660010928101C1E0C0935A01C0939E01CC
:10096000109278011092B20180E990E00E942D105F
:100970008093770180917701887311F0C09377019C
:100980001092A2011092A1018FEF90E09093A0012C
:1009900080939F0110927D0110927E0110927F0141
:1009A0001092800181E080933D0182E49FE090936A
:1009B000B1018093B00180EB90E00E942D10C82F10
:1009C00081EB90E00E942D102C2F30E0382B3093DB
:1009D000B4012093B30185E090E00E942D10809334
:1009E000B70189E090E00E942D108093A3018CE074
:1009F00090E00E942D108093B50184E190E00E9468
:100A00002D108093B60152E8E52E51E0F52E0BE54E
:100A100011E0C0E2D0E0CE010E942D10D82ECE0110
:100A200001960E942D102D2D30E0322F2227282BE9
:100A3000F701219331937F01CE01C0960E942D10C2
:100A4000D82ECE01C1960E942D102D2D30E0322FD0
:100A50002227282BF801219331938F012296CC3342
:100A6000D105C9F67894DF91CF911F910F91FF9036
:100A7000EF90DF9008951F920F920FB60F921124FE
:100A80008F9388E10FB6F894809360001092600015
:100A90000FBE8F910F900FBE0F901F9018957C0185
:100AA000EB01D12C88248A9464E0B62E76E0972E50
:100AB000E3E8AE2E08E110E0F9E2CF2EE0913D012F
:100AC000F0E0E730F105D0F7EC5CFF4F0C94ED0D52
:100AD000DD2009F4FDC0B0923D01DD24D394FE0178
:100AE0000995ECCF809181018111EBC0F89490922F
:100AF0007C00A0927A0080917A00806480937A00D2
:100B000080917A0086FDFCCF2091780030917900A9
:100B100078942B3A92E039070CF0EDC02938E2E0E6
:100B20003E070CF0EFC0273632400CF4CAC0559A8D
:100B3000549A3B9A3A9A3D983C98C0CFF89480B723
:100B4000877F80BF80917A008F7780937A0014B876
:100B500017B81AB815B818B81BB80FB6F894A895F6
:100B6000009360000FBEC0926000809160008064BE
:100B70008093600083B7817F846083BFF89483B7DC
:100B8000816083BF7894889583B78E7F83BF789484
:100B900010928101529A5A9A80917A0080688093CB
:100BA0007A0087E592E00197F1F700C0000080B776
:100BB000886180BF559A549A3B9A3A9A3D9A3C9ADA
:100BC000EFE1FEE43197F1F700C000008091810170
:100BD000811181C0559854983B983A983D983C981B
:100BE0006DCF80913B01811141C01092B3001092F2
:100BF000B40010923C0162CF4899ECCF559A5498BA
:100C00003B983A983D983C988FEC97E00197F1F724
:100C100000C00000559854983B983A983D983C98ED
:100C20009FEFE1EEF4E09150E040F040E1F700C0CA
:100C3000000044CF559854983B9A3A9A3D983C9876
:100C4000EFECF7E03197F1F700C0000055985498A9
:100C50003B983A983D983C98FFEF21EE84E0F150A4
:100C600020408040E1F700C0000028CF90913B0178
:100C700080913C01981709F421CF80913B0180932A
:100C80003C0180913B01813009F450C080913B01CF
:100C90001092B3008092B4008230D9F18092B300F8
:100CA0008092B4008FE295E70197F1F700C0000051
:100CB0008091B6019091B5019093B3008093B400F8
:100CC000FDCE559A549A3B983A983D983C98F6CE6A
:100CD000F701099500CF559A549A3B983A983D9858
:100CE0003C98FFEF20E782E0F15020408040E1F7A0
:100CF00000C000006FCF559854983B9A3A9A3D989F
:100D00003C98DCCE559854983B983A983D9A3C9A3A
:100D1000D5CEEFE2F5E73197F1F700C00000809102
:100D2000A3011092B3008093B400C8CE8092B300A8
:100D30001092B4008FE295E70197F1F700C0000030
:100D40008091B7018093B3001092B400B7CE07C072
:100D5000EFECF7E03197F1F700C000000197009742
:100D6000B9F708958093B3006093B40008958FEFAE
:100D70008093B3008093B4008FE090E0EFECF7E055
:100D80003197F1F700C0000001970097B9F7089577
:100D90008091810181111EC0F89487E080937C00CE
:100DA00083E880937A0080917A00806480937A004F
:100DB00080917A0086FDFCCF809178009091790037
:100DC00010927C0023EA20937A0021E020937B009C
:100DD000789408958FEF9FEF08958091810181119C
:100DE0001EC0F89488EC80937C0087E880937A009A
:100DF00080917A00806480937A0080917A0086FDE9
:100E0000FCCF809178009091790010927C0023EAC9
:100E100020937A0021E020937B00789408958FEF4F
:100E20009FEF08951F93CF93DF9360E070E080E021
:100E300013EAD1E0C6E0B3E8E1E0F0E020E830E01A
:100E4000F894C0937C00B0937A0090917A009064FB
:100E500090937A0090917A0096FDFCCF40917800B3
:100E600050917900A42FA17090917A009064909392
:100E70007A0090917A0096FDFCCF409178005091D5
:100E8000790010927C0010937A00D0937B007894C4
:100E90004170A41305C0215031092115310581F697
:100EA000AA2339F09F01062E01C0220F0A94EAF707
:100EB000822B6F5F7F4F6830710509F0BFCFDF91E4
:100EC000CF911F91089580911601982F990F990F36
:100ED000990F982780913A0121E0280F20933A0139
:100EE0008695869589279295969597708927809300
:100EF0001601089580931601089580918101811152
:100F000016C0F89486E080937C0083E880937A0092
:100F100080917A00806480937A0080917A0086FDC7
:100F2000FCCF8091780090917900789408958FEFAC
:100F30009FEF08952F923F924F925F926F927F9210
:100F40008F929F92AF92BF92CF92DF92EF92FF92D9
:100F50000F931F93CF93DF9300D000D000D0CDB775
:100F6000DEB78C01DC0112960D90BC91A02DBE83E2
:100F7000AD83A438E3E0BE070CF0CAC080915B01EA
:100F800090915C018A179B0708F4A9C160905D01EC
:100F900070905E016A167B0608F427C260905F01BC
:100FA000709060016A167B0608F428C260906101A7
:100FB000709062016A167B0608F429C26090630192
:100FC000709064016A167B0608F42AC2609065017D
:100FD000709066016A167B0608F48BC16090670109
:100FE000709068016A167B0608F423C2609069015C
:100FF00070906A016A167B0608F424C260906B0147
:1010000070906C016A167B0608F425C260906D0131
:1010100070906E016A167B0608F426C260906F011C
:10102000709070016A167B0608F427C26090710107
:10103000709072016A167B0608F42DC260907301ED
:10104000709074016A167B0608F42EC260907501D8
:10105000709076016A167B0608F42FC280E090E05B
:10106000A0EDB0E489839A83AB83BC838CE0E82E47
:10107000F12CF701EE0FFF1FE55AFE4F80819181A1
:10108000B301681B790B80E090E00E94140F9B0174
:10109000AC010E94170E6B017C01AD81BE81BD01C8
:1010A000882777FD8095982F0E94160F4B015C01D1
:1010B000B30180E090E00E94140F2B013C012981D4
:1010C0003A814B815C81C701B6010E94A60F9B014A
:1010D000AC01C301B2010E94160E9B01AC01C50117
:1010E000B4010E94160E20E030E040E251E40E947C
:1010F000A60F0E94E30E5B01C701B6010E94E30E3A
:10110000AB01BC01C501BA010E94D90D762EE8C021
:1011100077247A94D801AD90BC908091820190910F
:1011200083018A159B0508F46FC00091840110911A
:1011300085010A151B0508F45CC100918601109118
:1011400087010A151B0508F45DC100918801109103
:1011500089010A151B0508F45EC100918A011091EE
:101160008B010A151B0508F45FC100918C011091D9
:101170008D010A151B0508F4D8C000918E0110914D
:101180008F010A151B0508F458C1009190011091B8
:1011900091010A151B0508F459C1009192011091A3
:1011A00093010A151B0508F45AC10091940110918E
:1011B00095010A151B0508F45BC100919601109179
:1011C00097010A151B0508F45CC100919801109164
:1011D00099010A151B0508F459C100919A01109153
:1011E0009B010A151B0508F45AC100919C0110913E
:1011F0009D010A151B0508F45BC11AE5BFEF7B12C0
:1012000007C081E2810F52C010E0BFEF7B16C9F327
:10121000ED81FE81BF01882777FD8095982F0E9480
:10122000160F6B017C01672D70E080E090E00E945A
:10123000140F4B015C01A701960160E070E081E6AC
:1012400094E40E94160E9B01AC01C501B4010E94FA
:10125000A60F4B015C01612F70E080E090E00E94DE
:10126000140F2B013C0120E030E04FE254E4C701B1
:10127000B6010E94160E9B01AC01C301B2010E948F
:10128000A60F9B01AC01C501B4010E94170E20E01E
:1012900030E048E453E40E947B0E20E030E044E07C
:1012A00052E40E94170E0E94E80E862F26960FB673
:1012B000F894DEBF0FBECDBFDF91CF911F910F918C
:1012C000FF90EF90DF90CF90BF90AF909F908F9066
:1012D0007F906F905F904F903F902F900895712C6A
:1012E000ED81FE81ED3BF2400CF014CF81E2870DE1
:1012F000DDCF65E085E090E07C01F1E0EF1AF108D8
:1013000070E080E090E00E94140F20E030E040E0C8
:101310005FE30E94A60F20E030E0A9010E94170EB3
:1013200069837A838B839C83A4CE75E0672EE5E086
:10133000F0E0EE0FFF1FE058FE4F80819181B80171
:10134000681B790B80E090E00E94140F9B01AC01B8
:101350000E94170E6B017C01B501882777FD8095EF
:10136000982F0E94160F4B015C01B80180E090E0BD
:101370000E94140F1B012C01662D70E080E090E0AC
:101380000E94140F20E030E040E05FE30E94A60FCF
:1013900020E030E0A9010E94170EA70196010E94EB
:1013A000A60F9B01AC01C201B1010E94160E9B0168
:1013B000AC01C501B4010E94160E20E030E040E20D
:1013C00051E40E94A60F0E94E30E8B01C701B601F3
:1013D0000E94E30EAB01BC01C801BA010E94D90D05
:1013E000162F6F3F09F011CF81CF61E081E090E0CF
:1013F00083CF66246394E1E0F0E09BCF62E082E07B
:1014000090E07ACFA2E06A2EE2E0F0E092CF63E0D3
:1014100083E090E071CFF3E06F2EE3E0F0E089CF5E
:1014200064E084E090E068CFE4E06E2EE4E0F0E079
:1014300080CF66E086E090E05FCF66E0662EE6E073
:10144000F0E077CF67E087E090E056CF57E0652E79
:10145000E7E0F0E06ECF68E088E090E04DCF48E054
:10146000642EE8E0F0E065CF69E089E090E044CFE9
:1014700039E0632EE9E0F0E05CCF6AE08AE090E0DA
:101480003BCF2AE0622EEAE0F0E053CF9BE0692EEA
:10149000EBE0F0E04ECF6BE08BE090E02DCF8CE006
:1014A000682EECE0F0E045CF6CE08CE090E024CFDB
:1014B000BDE06B2EEDE0F0E03CCF6DE08DE090E024
:1014C0001BCF1F920F920FB60F9211242F933F93B1
:1014D0004F935F936F937F938F939F93AF93BF933C
:1014E000EF93FF938091A1019091A20120919F0120
:1014F0003091A001820F931F9093A2018093A101CC
:101500008FEF90E09093A00180939F018FEF87BDB4
:1015100080917D0190917E01A0917F01B091800129
:101520000196A11DB11D80937D0190937E01A09332
:101530007F01B09380018091810181110FC0809162
:10154000B0019091B1012091A1013091A2018217C7
:10155000930720F480913D01843089F0FF91EF9151
:10156000BF91AF919F918F917F916F915F914F91BB
:101570003F912F910F900FBE0F901F901895E09103
:101580001901F0911A010995009741F30E943F0D4E
:10159000811109C00E94C10199279093A0018093F5
:1015A0009F0187BDDBCFE0911701F09118010995EC
:1015B0001092A2011092A101D1CF80FF11C0559AC3
:1015C00081FF11C0549A82FF11C03B9A83FF11C062
:1015D0003A9A84FF11C03D9A85FD11C03C98089548
:1015E000559881FDEFCF549882FDEFCF3B9883FD56
:1015F000EFCF3A9884FDEFCF3D9885FFEFCF3C9A2F
:1016000008951F920F920FB60F9211248F939F93FC
:1016100010928100109285001092840081E08093E6
:101620005A0180939E011092810110927C0093EAEE
:1016300090937A0080937B009F918F910F900FBEC3
:101640000F901F9018951F920F920FB60F921124B2
:101650002F933F934F935F936F937F938F939F93BA
:10166000AF93BF93CF93DF93EF93FF9320918400C9
:101670003091850041E04093810180915A01882397
:10168000A9F110928500109284004093810010927D
:10169000B20110925A0180919E018823A1F080919D
:1016A0007A0086FDFCCF809178009091790090932C
:1016B0007C0180937B0181E080937C0093EA90938E
:1016C0007A0080937B00FF91EF91DF91CF91BF91E2
:1016D000AF919F918F917F916F915F914F913F91CA
:1016E0002F910F900FBE0F901F901895C90187582A
:1016F00091098437994008F04FC026583109A4EF6A
:10170000B0E00E94F30DAA27BB27883008F47BC005
:1017100040935A0180919E01811152C080917801BD
:10172000E82FF0E0EC55FE4F9091B20190838F5F6F
:10173000809378018C3039F61092810010928500E8
:101740001092840040939E0110928101C091AE01DD
:10175000D091AF0184EA91E00E94260DC817D90705
:1017600009F0B1CF8091AD0187FF5EC098E7980F77
:10177000933030F0539823981092B4001092B30035
:1017800090E0FC01E058F109EB30F10508F09BCF47
:10179000E55CFF4F0C94ED0D1092810010928500D6
:1017A0001092840040935A0140939E01109281014F
:1017B00010927C0083EA80937A0040937B0083CF71
:1017C00080917A0086FDFCCF80917800909179001D
:1017D00090937A018093790110927C0083EA809340
:1017E0007A0081E080937B009091B2019923B9F057
:1017F00010928100109285001092840080939E01C7
:101800001092810160CF21E030E001C0220F8A9563
:10181000EAF78091B201822B8093B20154CF1092EB
:101820009E01109278014FCFE0911B01F0911C01B5
:1018300069E771E084EA91E0099545CF8091A401C0
:10184000823009F4DCC008F4B9C0833009F4C5C0A3
:10185000843009F0B0C080913B019091AA0183309F
:1018600009F4E2C08091A90110923C0123E0209389
:101870003B018093B5019093B60180913D01863084
:1018800009F421CF539A239A1092B4001092B30016
:1018900086E080933D0117CF80913D01863099F01D
:1018A000539A239A1092B4001092B300559854980A
:1018B0003B983A983D983C9810923B0110923C011D
:1018C00086E080933D0181E090E00090A40102C099
:1018D000880F991F0A94E2F72091B3013091B40167
:1018E00082239323892B09F086C010923B01EBCE13
:1018F00081E080933D01E7CEE0E0F0E00995809142
:101900006E008D7F80936E0016BCE0E0F0E70995D5
:1019100010923D01D8CE82E080933D01D4CE85E087
:1019200080933D01D0CE80913D01833009F4CBCE30
:1019300080913D01843009F4C6CE539A239A1092C7
:10194000B4001092B30083E080933D01BCCE80913F
:101950003D01863009F0B7CE6091B30180EB90E095
:101960000E9435106091B40181EB90E00E94351027
:101970006091B70185E090E00E9435106091A3016D
:1019800089E090E00E9435106091B5018CE090E014
:101990000E9435106091B60184E190E00E943510FC
:1019A000539823981092B4001092B30081E0809372
:1019B0003D018091A401811160CF85CE882339F249
:1019C0008130C9F78091A5019091A6019093B4014F
:1019D0008093B30110923B0150CF80913B01823044
:1019E00071F18091A80110923C0192E090933B012B
:1019F0008093A30142CF81E080933B0164CE80912C
:101A00003B01813051F08091A70110923C0191E09F
:101A100090933B018093B70130CF8091A7019091C3
:101A2000B7018913F2CF29CF8091B60198131ACF4D
:101A30008091A9012091B501821316CF1ECF80910C
:101A4000A8019091A3018913CECF17CFFC012AE002
:101A50008FEF9FEF31918327082E8295807F80251D
:101A6000092E982F82958F700826869598278927AA
:101A7000880F880F880F8025215061F708950FB6D1
:101A8000F894A4B1209177012A2B24B921E0309158
:101A90007701203029F0000025B1232B25B904C09F
:101AA00000000000000000C00000000000003095B1
:101AB00025B1232325B92EEA2A95F1F72BEE30B76D
:101AC00035FF0AC0A4B930917701309525B12323A1
:101AD00025B90FBE80E0089500002A9581F721E026
:101AE00030917701203029F0000025B1232B25B952
:101AF00004C000000000000000C000000000000062
:101B0000309525B1232325B9000024E52A95F1F766
:101B1000FC018CE0619170E0660F771F616072607C
:101B20009AE041E050E09A0126233723232B30919D
:101B30007701203029F0000025B1232B25B904C0FE
:101B400000000000000000C0000000000000309510
:101B500025B1232325B9000021E52A95F1F7440F8B
:101B6000551F9A9501F78A95A9F620B7206120BFE5
:101B7000A4B930917701309525B1232325B90FBE43
:101B800081E008950E94560482EC90E090931C013D
:101B900080931B018BEA90E090931A0180931901C6
:101BA0006BE573E08EE690E00E944F0580E090E0E8
:101BB000089597FB072E16F4009407D077FD09D0FF
:101BC0000E94020E07FC05D03EF4909581959F4F30
:101BD0000895709561957F4F0895EE0FFF1F059052
:101BE000F491E02D0994A29FB001B39FC001A39F7F
:101BF000700D811D1124911DB29F700D811D112446
:101C0000911D0895AA1BBB1B51E107C0AA1FBB1F52
:101C1000A617B70710F0A61BB70B881F991F5A9578
:101C2000A9F780959095BC01CD0108955058BB2728
:101C3000AA270ED04DC13ED130F043D120F031F46F
:101C40009F3F11F41EF433C10EF4E095E7FB29C168
:101C5000E92F4FD180F3BA176207730784079507FE
:101C600018F071F49EF567C10EF4E0950B2EBA2FB3
:101C7000A02D0B01B90190010C01CA01A001112492
:101C8000FF27591B99F0593F50F4503E68F11A163E
:101C9000F040A22F232F342F4427585FF3CF4695CF
:101CA00037952795A795F0405395C9F77EF41F16F1
:101CB000BA0B620B730B840BBAF09150A1F0FF0FBB
:101CC000BB1F661F771F881FC2F70EC0BA0F621FA7
:101CD000731F841F48F4879577956795B795F79597
:101CE0009E3F08F0B3CF9395880F08F09927EE0F29
:101CF0009795879508950CD0EBC0E3D040F0DAD0EB
:101D000030F021F45F3F19F0CCC0511115C1CFC0A4
:101D1000F0D098F39923C9F35523B1F3951B550BD4
:101D2000BB27AA2762177307840738F09F5F5F4FAE
:101D3000220F331F441FAA1FA9F333D00E2E3AF0EF
:101D4000E0E830D091505040E695001CCAF729D009
:101D5000FE2F27D0660F771F881FBB1F2617370758
:101D60004807AB07B0E809F0BB0B802DBF01FF2788
:101D700093585F4F2AF09E3F510568F092C0DCC037
:101D80005F3FECF3983EDCF3869577956795B795C2
:101D9000F7959F5FC9F7880F911D9695879597F9DD
:101DA0000895E1E0660F771F881FBB1F6217730756
:101DB0008407BA0720F0621B730B840BBA0BEE1F6B
:101DC00088F7E095089504D06894B111B5C00895DE
:101DD00098D088F09F5790F0B92F9927B751A0F06D
:101DE000D1F0660F771F881F991F1AF0BA95C9F7AF
:101DF00012C0B13081F09FD0B1E008959CC0672F30
:101E0000782F8827B85F39F0B93FCCF3869577955E
:101E10006795B395D9F73EF4909580957095619547
:101E20007F4F8F4F9F4F0895E89409C097FB3EF472
:101E300090958095709561957F4F8F4F9F4F992317
:101E4000A9F0F92F96E9BB279395F6958795779595
:101E50006795B795F111F8CFFAF4BB0F11F460FF55
:101E60001BC06F5F7F4F8F4F9F4F16C0882311F0AD
:101E700096E911C0772321F09EE8872F762F05C0C1
:101E8000662371F096E8862F70E060E02AF09A955C
:101E9000660F771F881FDAF7880F9695879597F951
:101EA000089597F99F6780E870E060E008959FEFDC
:101EB00080EC089500240A941616170618060906E1
:101EC000089500240A9412161306140605060895B0
:101ED000092E0394000C11F4882352F0BB0F40F438
:101EE000BF2B11F460FF04C06F5F7F4F8F4F9F4F78
:101EF000089557FD9058440F551F59F05F3F71F0FA
:101F00004795880F97FB991F61F09F3F79F0879560
:101F10000895121613061406551FF2CF4695F1DFE9
:101F200008C0161617061806991FF1CF8695710579
:101F3000610508940895E894BB2766277727CB01AD
:101F400097F9089566D008F48FEF08950BD0C0CFAD
:101F5000B1DF28F0B6DF18F0952309F0A2CFA7CFA4
:101F60001124EACFC6DFA0F3959FD1F3950F50E07F
:101F7000551F629FF001729FBB27F00DB11D639F3B
:101F8000AA27F00DB11DAA1F649F6627B00DA11DE1
:101F9000661F829F2227B00DA11D621F739FB00D87
:101FA000A11D621F839FA00D611D221F749F3327F7
:101FB000A00D611D231F849F600D211D822F762F90
:101FC0006A2F11249F5750408AF0E1F088234AF08D
:101FD000EE0FFF1FBB1F661F771F881F91505040D9
:101FE000A9F79E3F510570F05CCFA6CF5F3FECF3A1
:101FF000983EDCF3869577956795B795F795E795C5
:102000009F5FC1F7FE2B880F911D9695879597F9D5
:102010000895990F0008550FAA0BE0E8FEEF161679
:102020001706E807F907C0F012161306E407F507CC
:1020300098F0621B730B840B950B39F40A2661F040
:10204000232B242B252B21F408950A2609F4A140E3
:10205000A6958FEF811D811D0895F999FECF92BD40
:1020600081BDF89A992780B50895262FF999FECF5A
:102070001FBA92BD81BD20BD0FB6F894FA9AF99AA5
:0A2080000FBE01960895F894FFCFFB
:10208A006400640035002300010001000100010022
:0E209A00FF0001000100AA5504520451040089
:00000001FF
